{
  "_format": "hh-sol-artifact-1",
  "contractName": "CampaignSatellite",
  "sourceName": "contracts/CampaignSatellite.sol",
  "abi": [
    {
      "inputs": [
        {
          "internalType": "string",
          "name": "_hubChain",
          "type": "string"
        },
        {
          "internalType": "address",
          "name": "_gateway",
          "type": "address"
        },
        {
          "internalType": "address",
          "name": "_gasService",
          "type": "address"
        }
      ],
      "stateMutability": "payable",
      "type": "constructor"
    },
    {
      "inputs": [],
      "name": "AlreadyInitialized",
      "type": "error"
    },
    {
      "inputs": [],
      "name": "InvalidAddress",
      "type": "error"
    },
    {
      "inputs": [],
      "name": "InvalidCodeHash",
      "type": "error"
    },
    {
      "inputs": [],
      "name": "InvalidImplementation",
      "type": "error"
    },
    {
      "inputs": [],
      "name": "InvalidOwner",
      "type": "error"
    },
    {
      "inputs": [],
      "name": "NotApprovedByGateway",
      "type": "error"
    },
    {
      "inputs": [],
      "name": "NotOwner",
      "type": "error"
    },
    {
      "inputs": [],
      "name": "NotProxy",
      "type": "error"
    },
    {
      "inputs": [],
      "name": "SetupFailed",
      "type": "error"
    },
    {
      "anonymous": false,
      "inputs": [
        {
          "indexed": true,
          "internalType": "address",
          "name": "newOwner",
          "type": "address"
        }
      ],
      "name": "OwnershipTransferStarted",
      "type": "event"
    },
    {
      "anonymous": false,
      "inputs": [
        {
          "indexed": true,
          "internalType": "address",
          "name": "newOwner",
          "type": "address"
        }
      ],
      "name": "OwnershipTransferred",
      "type": "event"
    },
    {
      "anonymous": false,
      "inputs": [
        {
          "indexed": true,
          "internalType": "address",
          "name": "newImplementation",
          "type": "address"
        }
      ],
      "name": "Upgraded",
      "type": "event"
    },
    {
      "inputs": [],
      "name": "acceptOwnership",
      "outputs": [],
      "stateMutability": "nonpayable",
      "type": "function"
    },
    {
      "inputs": [
        {
          "internalType": "uint256",
          "name": "",
          "type": "uint256"
        }
      ],
      "name": "campaigns",
      "outputs": [
        {
          "internalType": "address",
          "name": "campaignOwner",
          "type": "address"
        },
        {
          "internalType": "uint256",
          "name": "campaignId",
          "type": "uint256"
        },
        {
          "internalType": "uint256",
          "name": "raisedFunds",
          "type": "uint256"
        },
        {
          "internalType": "bool",
          "name": "hasReachedTarget",
          "type": "bool"
        }
      ],
      "stateMutability": "view",
      "type": "function"
    },
    {
      "inputs": [],
      "name": "chainName",
      "outputs": [
        {
          "internalType": "string",
          "name": "",
          "type": "string"
        }
      ],
      "stateMutability": "view",
      "type": "function"
    },
    {
      "inputs": [],
      "name": "contractId",
      "outputs": [
        {
          "internalType": "bytes32",
          "name": "",
          "type": "bytes32"
        }
      ],
      "stateMutability": "pure",
      "type": "function"
    },
    {
      "inputs": [
        {
          "internalType": "uint256",
          "name": "_campaignId",
          "type": "uint256"
        },
        {
          "internalType": "uint256",
          "name": "_amount",
          "type": "uint256"
        },
        {
          "internalType": "address payable",
          "name": "_depositAddress",
          "type": "address"
        }
      ],
      "name": "crossChainDonate",
      "outputs": [],
      "stateMutability": "payable",
      "type": "function"
    },
    {
      "inputs": [
        {
          "internalType": "bytes32",
          "name": "commandId",
          "type": "bytes32"
        },
        {
          "internalType": "string",
          "name": "sourceChain",
          "type": "string"
        },
        {
          "internalType": "string",
          "name": "sourceAddress",
          "type": "string"
        },
        {
          "internalType": "bytes",
          "name": "payload",
          "type": "bytes"
        }
      ],
      "name": "execute",
      "outputs": [],
      "stateMutability": "nonpayable",
      "type": "function"
    },
    {
      "inputs": [
        {
          "internalType": "bytes32",
          "name": "commandId",
          "type": "bytes32"
        },
        {
          "internalType": "string",
          "name": "sourceChain",
          "type": "string"
        },
        {
          "internalType": "string",
          "name": "sourceAddress",
          "type": "string"
        },
        {
          "internalType": "bytes",
          "name": "payload",
          "type": "bytes"
        },
        {
          "internalType": "string",
          "name": "tokenSymbol",
          "type": "string"
        },
        {
          "internalType": "uint256",
          "name": "amount",
          "type": "uint256"
        }
      ],
      "name": "executeWithToken",
      "outputs": [],
      "stateMutability": "nonpayable",
      "type": "function"
    },
    {
      "inputs": [],
      "name": "gasService",
      "outputs": [
        {
          "internalType": "contract IAxelarGasService",
          "name": "",
          "type": "address"
        }
      ],
      "stateMutability": "view",
      "type": "function"
    },
    {
      "inputs": [],
      "name": "gateway",
      "outputs": [
        {
          "internalType": "contract IAxelarGateway",
          "name": "",
          "type": "address"
        }
      ],
      "stateMutability": "view",
      "type": "function"
    },
    {
      "inputs": [],
      "name": "hubChain",
      "outputs": [
        {
          "internalType": "string",
          "name": "",
          "type": "string"
        }
      ],
      "stateMutability": "view",
      "type": "function"
    },
    {
      "inputs": [],
      "name": "implementation",
      "outputs": [
        {
          "internalType": "address",
          "name": "implementation_",
          "type": "address"
        }
      ],
      "stateMutability": "view",
      "type": "function"
    },
    {
      "inputs": [
        {
          "internalType": "uint256",
          "name": "_campaignId",
          "type": "uint256"
        }
      ],
      "name": "isCampaign",
      "outputs": [
        {
          "internalType": "bool",
          "name": "",
          "type": "bool"
        }
      ],
      "stateMutability": "view",
      "type": "function"
    },
    {
      "inputs": [],
      "name": "owner",
      "outputs": [
        {
          "internalType": "address",
          "name": "owner_",
          "type": "address"
        }
      ],
      "stateMutability": "view",
      "type": "function"
    },
    {
      "inputs": [],
      "name": "pendingOwner",
      "outputs": [
        {
          "internalType": "address",
          "name": "owner_",
          "type": "address"
        }
      ],
      "stateMutability": "view",
      "type": "function"
    },
    {
      "inputs": [
        {
          "internalType": "uint256",
          "name": "",
          "type": "uint256"
        }
      ],
      "name": "remoteCampaignsData",
      "outputs": [
        {
          "internalType": "uint256",
          "name": "timeCampaignStarted",
          "type": "uint256"
        },
        {
          "internalType": "bool",
          "name": "campaignFinished",
          "type": "bool"
        }
      ],
      "stateMutability": "view",
      "type": "function"
    },
    {
      "inputs": [
        {
          "internalType": "bytes",
          "name": "data",
          "type": "bytes"
        }
      ],
      "name": "setup",
      "outputs": [],
      "stateMutability": "nonpayable",
      "type": "function"
    },
    {
      "inputs": [
        {
          "internalType": "address",
          "name": "newOwner",
          "type": "address"
        }
      ],
      "name": "transferOwnership",
      "outputs": [],
      "stateMutability": "nonpayable",
      "type": "function"
    },
    {
      "inputs": [
        {
          "internalType": "address",
          "name": "newImplementation",
          "type": "address"
        },
        {
          "internalType": "bytes32",
          "name": "newImplementationCodeHash",
          "type": "bytes32"
        },
        {
          "internalType": "bytes",
          "name": "params",
          "type": "bytes"
        }
      ],
      "name": "upgrade",
      "outputs": [],
      "stateMutability": "nonpayable",
      "type": "function"
    }
  ],
  "bytecode": "0x60c060405260405162001df438038062001df483398101604081905262000026916200015a565b816001600160a01b0381166200004f5760405163e6c4247b60e01b815260040160405180910390fd5b6001600160a01b03908116608052811660a05282516200007790600190602086019062000081565b505050506200029a565b8280546200008f906200025d565b90600052602060002090601f016020900481019282620000b35760008555620000fe565b82601f10620000ce57805160ff1916838001178555620000fe565b82800160010185558215620000fe579182015b82811115620000fe578251825591602001919060010190620000e1565b506200010c92915062000110565b5090565b5b808211156200010c576000815560010162000111565b634e487b7160e01b600052604160045260246000fd5b80516001600160a01b03811681146200015557600080fd5b919050565b6000806000606084860312156200017057600080fd5b83516001600160401b03808211156200018857600080fd5b818601915086601f8301126200019d57600080fd5b815181811115620001b257620001b262000127565b604051601f8201601f19908116603f01168101908382118183101715620001dd57620001dd62000127565b81604052828152602093508984848701011115620001fa57600080fd5b600091505b828210156200021e5784820184015181830185015290830190620001ff565b82821115620002305760008484830101525b9650620002429150508682016200013d565b9350505062000254604085016200013d565b90509250925092565b600181811c908216806200027257607f821691505b602082108114156200029457634e487b7160e01b600052602260045260246000fd5b50919050565b60805160a051611b18620002dc600039600081816102a6015261104a015260008181610140015281816104dd0152818161067601526110f30152611b186000f3fe6080604052600436106101295760003560e01c80638291286c116100a55780639ded06df11610074578063a81bec3611610059578063a81bec36146103f3578063e30c39781461043f578063f2fde38b1461047357600080fd5b80639ded06df146103b3578063a3499c73146103d357600080fd5b80638291286c1461031c5780638a358f89146103575780638da5cb5b1461036a5780639dd0cc161461039e57600080fd5b806349160658116100fc5780636a22d8cc116100e15780636a22d8cc14610294578063715ce448146102c857806379ba50971461030757600080fd5b806349160658146102405780635c60da1b1461026057600080fd5b8063116191b61461012e578063141961bc1461017f5780631a98b2e0146101fc5780631c93b03a1461021e575b600080fd5b34801561013a57600080fd5b506101627f000000000000000000000000000000000000000000000000000000000000000081565b6040516001600160a01b0390911681526020015b60405180910390f35b34801561018b57600080fd5b506101d061019a3660046112ad565b600260208190526000918252604090912080546001820154928201546003909201546001600160a01b0390911692919060ff1684565b604080516001600160a01b03909516855260208501939093529183015215156060820152608001610176565b34801561020857600080fd5b5061021c61021736600461130f565b610493565b005b34801561022a57600080fd5b5061023361059e565b6040516101769190611441565b34801561024c57600080fd5b5061021c61025b36600461145b565b61062c565b34801561026c57600080fd5b507f360894a13ba1a3210667c828492db98dca3e2076cc3735a920a3ca505d382bbc54610162565b3480156102a057600080fd5b506101627f000000000000000000000000000000000000000000000000000000000000000081565b3480156102d457600080fd5b506102f76102e33660046112ad565b600090815260036020526040902054151590565b6040519015158152602001610176565b34801561031357600080fd5b5061021c61073c565b34801561032857600080fd5b506040517f6fd43e7cffc31bb581d7421c8698e29aa2bd8e7186a394b85299908b4eb9b1758152602001610176565b61021c610365366004611517565b610826565b34801561037657600080fd5b507f02016836a56b71f0d02689e69e326f4f4c1b9057164ef592671cf0d37c8040c054610162565b3480156103aa57600080fd5b5061023361099a565b3480156103bf57600080fd5b5061021c6103ce366004611550565b6109a7565b3480156103df57600080fd5b5061021c6103ee366004611592565b610a20565b3480156103ff57600080fd5b5061042a61040e3660046112ad565b6003602052600090815260409020805460019091015460ff1682565b60408051928352901515602083015201610176565b34801561044b57600080fd5b507f9855384122b55936fbfb8ca5120e63c6537a1ac40caf6ae33502b3c5da8c87d154610162565b34801561047f57600080fd5b5061021c61048e3660046115ee565b610d3c565b600085856040516104a592919061160b565b6040519081900381207f1876eed900000000000000000000000000000000000000000000000000000000825291506001600160a01b037f00000000000000000000000000000000000000000000000000000000000000001690631876eed990610522908e908e908e908e908e9089908d908d908d90600401611644565b602060405180830381600087803b15801561053c57600080fd5b505af1158015610550573d6000803e3d6000fd5b505050506040513d601f19601f8201168201806040525081019061057491906116a3565b61059157604051631403112d60e21b815260040160405180910390fd5b5050505050505050505050565b600080546105ab906116c5565b80601f01602080910402602001604051908101604052809291908181526020018280546105d7906116c5565b80156106245780601f106105f957610100808354040283529160200191610624565b820191906000526020600020905b81548152906001019060200180831161060757829003601f168201915b505050505081565b6000828260405161063e92919061160b565b6040519081900381207f5f6970c300000000000000000000000000000000000000000000000000000000825291506001600160a01b037f00000000000000000000000000000000000000000000000000000000000000001690635f6970c3906106b5908b908b908b908b908b908990600401611700565b602060405180830381600087803b1580156106cf57600080fd5b505af11580156106e3573d6000803e3d6000fd5b505050506040513d601f19601f8201168201806040525081019061070791906116a3565b61072457604051631403112d60e21b815260040160405180910390fd5b610732878787878787610de4565b5050505050505050565b60006107667f9855384122b55936fbfb8ca5120e63c6537a1ac40caf6ae33502b3c5da8c87d15490565b90506001600160a01b03811633146107aa576040517f49e27cff00000000000000000000000000000000000000000000000000000000815260040160405180910390fd5b6040516001600160a01b038216907f04dba622d284ed0014ee4b9a6a68386be1a4c08a4913ae272de89199cc68616390600090a260007f9855384122b55936fbfb8ca5120e63c6537a1ac40caf6ae33502b3c5da8c87d1557f02016836a56b71f0d02689e69e326f4f4c1b9057164ef592671cf0d37c8040c055565b6000838152600360205260409020600181015460ff161561088e5760405162461bcd60e51b815260206004820152601b60248201527f63616d706169676e20686173206265656e20636f6d706c65746564000000000060448201526064015b60405180910390fd5b6000848152600360205260409020546108e95760405162461bcd60e51b815260206004820152601460248201527f6e6f7420612076616c69642063616d706169676e0000000000000000000000006044820152606401610885565b82341161095e5760405162461bcd60e51b815260206004820152603360248201527f73656e7420616d6f756e74206973206c6f776572207468616e20616d6f756e7460448201527f20796f752077616e7420746f20646f6e617465000000000000000000000000006064820152608401610885565b6040516001600160a01b038316903480156108fc02916000818181858888f19350505050158015610993573d6000803e3d6000fd5b5050505050565b600180546105ab906116c5565b60006109d17f360894a13ba1a3210667c828492db98dca3e2076cc3735a920a3ca505d382bbc5490565b6001600160a01b03161415610a12576040517fbf10dd3a00000000000000000000000000000000000000000000000000000000815260040160405180910390fd5b610a1c82826111a5565b5050565b33610a497f02016836a56b71f0d02689e69e326f4f4c1b9057164ef592671cf0d37c8040c05490565b6001600160a01b031614610a70576040516330cd747160e01b815260040160405180910390fd5b306001600160a01b0316638291286c6040518163ffffffff1660e01b815260040160206040518083038186803b158015610aa957600080fd5b505afa158015610abd573d6000803e3d6000fd5b505050506040513d601f19601f82011682018060405250810190610ae19190611741565b846001600160a01b0316638291286c6040518163ffffffff1660e01b815260040160206040518083038186803b158015610b1a57600080fd5b505afa158015610b2e573d6000803e3d6000fd5b505050506040513d601f19601f82011682018060405250810190610b529190611741565b14610b89576040517f68155f9a00000000000000000000000000000000000000000000000000000000815260040160405180910390fd5b836001600160a01b03163f8314610bcc576040517f8f84fb2400000000000000000000000000000000000000000000000000000000815260040160405180910390fd5b8015610ce1576000846001600160a01b0316639ded06df60e01b8484604051602401610bf992919061175a565b60408051601f198184030181529181526020820180517bffffffffffffffffffffffffffffffffffffffffffffffffffffffff167fffffffff00000000000000000000000000000000000000000000000000000000909416939093179092529051610c649190611776565b600060405180830381855af49150503d8060008114610c9f576040519150601f19603f3d011682016040523d82523d6000602084013e610ca4565b606091505b5050905080610cdf576040517f97905dfb00000000000000000000000000000000000000000000000000000000815260040160405180910390fd5b505b6040516001600160a01b038516907fbc7cd75a20ee27fd9adebab32041f755214dbc6bffa90cc0225b39da2e5c2d3b90600090a25050507f360894a13ba1a3210667c828492db98dca3e2076cc3735a920a3ca505d382bbc55565b33610d657f02016836a56b71f0d02689e69e326f4f4c1b9057164ef592671cf0d37c8040c05490565b6001600160a01b031614610d8c576040516330cd747160e01b815260040160405180910390fd5b6040516001600160a01b038216907fd9be0e8e07417e00f2521db636cb53e316fd288f5051f16d2aa2bf0c3938a87690600090a27f9855384122b55936fbfb8ca5120e63c6537a1ac40caf6ae33502b3c5da8c87d155565b6001604051602001610df69190611792565b604051602081830303815290604052805190602001208585604051602001610e1f92919061160b565b6040516020818303038152906040528051906020012014610ea85760405162461bcd60e51b815260206004820152603160248201527f4f6e6c79206d657373616765732066726f6d207468652068756220636861696e60448201527f2063616e206265207265636569766564210000000000000000000000000000006064820152608401610885565b602081015161ffff8116610f9a5760008083806020019051810190610ecd919061181b565b9250925050610eea82600090815260036020526040902054151590565b15610f5d5760405162461bcd60e51b815260206004820152602f60248201527f50726f706f73616c204944206d75737420626520756e697175652c20616e642060448201527f6e6f7420616c72656164792073657400000000000000000000000000000000006064820152608401610885565b6040805180820182529182526000602080840182815294825260039052209051815590516001909101805460ff191691151591909117905561119d565b8061ffff166001141561119d57600082806020019051810190610fbd9190611850565b600081815260026020818152604080842080549381015460038201549251969850909650939461100a94869489946001600160a01b0390911693919260ff9092169160048a01910161187c565b60408051601f19818403018152908290527f0c93e3bb00000000000000000000000000000000000000000000000000000000825291506001600160a01b037f00000000000000000000000000000000000000000000000000000000000000001690630c93e3bb9067016345785d8a0000906110949030906001908d908d9089903390600401611975565b6000604051808303818588803b1580156110ad57600080fd5b505af11580156110c1573d6000803e3d6000fd5b50506040517f1c92115f0000000000000000000000000000000000000000000000000000000081526001600160a01b037f0000000000000000000000000000000000000000000000000000000000000000169350631c92115f925061113291506001908b908b9087906004016119d6565b600060405180830381600087803b15801561114c57600080fd5b505af1158015611160573d6000803e3d6000fd5b5050506000938452505060026020908152604080842060039081018054600160ff1991821681179092559190935293208101805490931617909155505b505050505050565b60006111b382840184611a31565b9050600080546111c2906116c5565b1590506111fb576040517f0dc149f000000000000000000000000000000000000000000000000000000000815260040160405180910390fd5b805161120e906000906020840190611214565b50505050565b828054611220906116c5565b90600052602060002090601f0160209004810192826112425760008555611288565b82601f1061125b57805160ff1916838001178555611288565b82800160010185558215611288579182015b8281111561128857825182559160200191906001019061126d565b50611294929150611298565b5090565b5b808211156112945760008155600101611299565b6000602082840312156112bf57600080fd5b5035919050565b60008083601f8401126112d857600080fd5b50813567ffffffffffffffff8111156112f057600080fd5b60208301915083602082850101111561130857600080fd5b9250929050565b60008060008060008060008060008060c08b8d03121561132e57600080fd5b8a35995060208b013567ffffffffffffffff8082111561134d57600080fd5b6113598e838f016112c6565b909b50995060408d013591508082111561137257600080fd5b61137e8e838f016112c6565b909950975060608d013591508082111561139757600080fd5b6113a38e838f016112c6565b909750955060808d01359150808211156113bc57600080fd5b506113c98d828e016112c6565b9150809450508092505060a08b013590509295989b9194979a5092959850565b60005b838110156114045781810151838201526020016113ec565b8381111561120e5750506000910152565b6000815180845261142d8160208601602086016113e9565b601f01601f19169290920160200192915050565b6020815260006114546020830184611415565b9392505050565b60008060008060008060006080888a03121561147657600080fd5b87359650602088013567ffffffffffffffff8082111561149557600080fd5b6114a18b838c016112c6565b909850965060408a01359150808211156114ba57600080fd5b6114c68b838c016112c6565b909650945060608a01359150808211156114df57600080fd5b506114ec8a828b016112c6565b989b979a50959850939692959293505050565b6001600160a01b038116811461151457600080fd5b50565b60008060006060848603121561152c57600080fd5b83359250602084013591506040840135611545816114ff565b809150509250925092565b6000806020838503121561156357600080fd5b823567ffffffffffffffff81111561157a57600080fd5b611586858286016112c6565b90969095509350505050565b600080600080606085870312156115a857600080fd5b84356115b3816114ff565b935060208501359250604085013567ffffffffffffffff8111156115d657600080fd5b6115e2878288016112c6565b95989497509550505050565b60006020828403121561160057600080fd5b8135611454816114ff565b8183823760009101908152919050565b81835281816020850137506000828201602090810191909152601f909101601f19169091010190565b89815260c06020820152600061165e60c083018a8c61161b565b828103604084015261167181898b61161b565b9050866060840152828103608084015261168c81868861161b565b9150508260a08301529a9950505050505050505050565b6000602082840312156116b557600080fd5b8151801515811461145457600080fd5b600181811c908216806116d957607f821691505b602082108114156116fa57634e487b7160e01b600052602260045260246000fd5b50919050565b86815260806020820152600061171a60808301878961161b565b828103604084015261172d81868861161b565b915050826060830152979650505050505050565b60006020828403121561175357600080fd5b5051919050565b60208152600061176e60208301848661161b565b949350505050565b600082516117888184602087016113e9565b9190910192915050565b60008083546117a0816116c5565b600182811680156117b857600181146117c9576117f8565b60ff198416875282870194506117f8565b8760005260208060002060005b858110156117ef5781548a8201529084019082016117d6565b50505082870194505b50929695505050505050565b805161ffff8116811461181657600080fd5b919050565b60008060006060848603121561183057600080fd5b61183984611804565b925060208401519150604084015190509250925092565b6000806040838503121561186357600080fd5b61186c83611804565b9150602083015190509250929050565b600060c0820161ffff89168352602088818501526001600160a01b038089166040860152876060860152861515608086015260c060a086015282865480855260e0870191508760005283600020945060005b818110156118ec5785548416835260019586019592850192016118ce565b50909c9b505050505050505050505050565b6000815461190b816116c5565b808552602060018381168015611928576001811461193c5761196a565b60ff1985168884015260408801955061196a565b866000528260002060005b858110156119625781548a8201860152908301908401611947565b890184019650505b505050505092915050565b60006001600160a01b03808916835260a0602084015261199860a08401896118fe565b83810360408501526119ab81888a61161b565b905083810360608501526119bf8187611415565b925050808416608084015250979650505050505050565b6060815260006119e960608301876118fe565b82810360208401526119fc81868861161b565b90508281036040840152611a108185611415565b979650505050505050565b634e487b7160e01b600052604160045260246000fd5b600060208284031215611a4357600080fd5b813567ffffffffffffffff80821115611a5b57600080fd5b818401915084601f830112611a6f57600080fd5b813581811115611a8157611a81611a1b565b604051601f8201601f19908116603f01168101908382118183101715611aa957611aa9611a1b565b81604052828152876020848701011115611ac257600080fd5b82602086016020830137600092810160200192909252509594505050505056fea2646970667358221220987696034666453e2c81ac4db48eb9176105992f6db82f53c564cf893b27ba8064736f6c63430008090033",
  "linkReferences": {},
  "deployedLinkReferences": {}
}