{
  "_format": "hh-sol-artifact-1",
  "contractName": "CampaignManager",
  "sourceName": "contracts/CampaignManager.sol",
  "abi": [
    {
      "inputs": [
        {
          "internalType": "address",
          "name": "_gateway",
          "type": "address"
        },
        {
          "internalType": "address",
          "name": "_gasService",
          "type": "address"
        },
        {
          "internalType": "bytes",
          "name": "_spokeChains",
          "type": "bytes"
        },
        {
          "internalType": "bytes",
          "name": "_spokeChainNames",
          "type": "bytes"
        }
      ],
      "stateMutability": "nonpayable",
      "type": "constructor"
    },
    {
      "inputs": [],
      "name": "InvalidAddress",
      "type": "error"
    },
    {
      "inputs": [],
      "name": "NotApprovedByGateway",
      "type": "error"
    },
    {
      "inputs": [
        {
          "internalType": "uint256",
          "name": "",
          "type": "uint256"
        }
      ],
      "name": "_campaignData",
      "outputs": [
        {
          "internalType": "address",
          "name": "campaignOwner",
          "type": "address"
        },
        {
          "internalType": "uint256",
          "name": "campaignId",
          "type": "uint256"
        },
        {
          "internalType": "uint256",
          "name": "raisedFunds",
          "type": "uint256"
        },
        {
          "internalType": "bool",
          "name": "hasReachedTarget",
          "type": "bool"
        }
      ],
      "stateMutability": "view",
      "type": "function"
    },
    {
      "inputs": [
        {
          "internalType": "uint256",
          "name": "",
          "type": "uint256"
        }
      ],
      "name": "allCampaignIds",
      "outputs": [
        {
          "internalType": "uint256",
          "name": "",
          "type": "uint256"
        }
      ],
      "stateMutability": "view",
      "type": "function"
    },
    {
      "inputs": [],
      "name": "campaignIdCounter",
      "outputs": [
        {
          "internalType": "uint256",
          "name": "",
          "type": "uint256"
        }
      ],
      "stateMutability": "view",
      "type": "function"
    },
    {
      "inputs": [
        {
          "internalType": "uint256",
          "name": "",
          "type": "uint256"
        },
        {
          "internalType": "uint32",
          "name": "",
          "type": "uint32"
        }
      ],
      "name": "campaignIdToChainIdToSpokeCampaignData",
      "outputs": [
        {
          "internalType": "address",
          "name": "campaignOwner",
          "type": "address"
        },
        {
          "internalType": "uint256",
          "name": "campaignId",
          "type": "uint256"
        },
        {
          "internalType": "uint256",
          "name": "raisedFunds",
          "type": "uint256"
        },
        {
          "internalType": "bool",
          "name": "hasReachedTarget",
          "type": "bool"
        },
        {
          "internalType": "bool",
          "name": "initialized",
          "type": "bool"
        }
      ],
      "stateMutability": "view",
      "type": "function"
    },
    {
      "inputs": [
        {
          "internalType": "uint256",
          "name": "",
          "type": "uint256"
        }
      ],
      "name": "collectionFinished",
      "outputs": [
        {
          "internalType": "bool",
          "name": "",
          "type": "bool"
        }
      ],
      "stateMutability": "view",
      "type": "function"
    },
    {
      "inputs": [
        {
          "internalType": "uint256",
          "name": "",
          "type": "uint256"
        }
      ],
      "name": "collectionStarted",
      "outputs": [
        {
          "internalType": "bool",
          "name": "",
          "type": "bool"
        }
      ],
      "stateMutability": "view",
      "type": "function"
    },
    {
      "inputs": [
        {
          "internalType": "string",
          "name": "_campaignCID",
          "type": "string"
        },
        {
          "internalType": "uint256",
          "name": "_target",
          "type": "uint256"
        },
        {
          "internalType": "address",
          "name": "_campaignSatelliteAddr",
          "type": "address"
        }
      ],
      "name": "createCampaign",
      "outputs": [
        {
          "internalType": "uint256",
          "name": "",
          "type": "uint256"
        }
      ],
      "stateMutability": "payable",
      "type": "function"
    },
    {
      "inputs": [
        {
          "internalType": "uint256",
          "name": "_campaignId",
          "type": "uint256"
        },
        {
          "internalType": "uint256",
          "name": "_amount",
          "type": "uint256"
        },
        {
          "internalType": "address payable",
          "name": "_depositAddress",
          "type": "address"
        }
      ],
      "name": "crossChainDonate",
      "outputs": [],
      "stateMutability": "payable",
      "type": "function"
    },
    {
      "inputs": [],
      "name": "enableWithdrawal",
      "outputs": [],
      "stateMutability": "nonpayable",
      "type": "function"
    },
    {
      "inputs": [
        {
          "internalType": "bytes32",
          "name": "commandId",
          "type": "bytes32"
        },
        {
          "internalType": "string",
          "name": "sourceChain",
          "type": "string"
        },
        {
          "internalType": "string",
          "name": "sourceAddress",
          "type": "string"
        },
        {
          "internalType": "bytes",
          "name": "payload",
          "type": "bytes"
        }
      ],
      "name": "execute",
      "outputs": [],
      "stateMutability": "nonpayable",
      "type": "function"
    },
    {
      "inputs": [
        {
          "internalType": "bytes32",
          "name": "commandId",
          "type": "bytes32"
        },
        {
          "internalType": "string",
          "name": "sourceChain",
          "type": "string"
        },
        {
          "internalType": "string",
          "name": "sourceAddress",
          "type": "string"
        },
        {
          "internalType": "bytes",
          "name": "payload",
          "type": "bytes"
        },
        {
          "internalType": "string",
          "name": "tokenSymbol",
          "type": "string"
        },
        {
          "internalType": "uint256",
          "name": "amount",
          "type": "uint256"
        }
      ],
      "name": "executeWithToken",
      "outputs": [],
      "stateMutability": "nonpayable",
      "type": "function"
    },
    {
      "inputs": [
        {
          "internalType": "uint256",
          "name": "_campaignId",
          "type": "uint256"
        }
      ],
      "name": "finishCollectionPhase",
      "outputs": [],
      "stateMutability": "nonpayable",
      "type": "function"
    },
    {
      "inputs": [],
      "name": "gasService",
      "outputs": [
        {
          "internalType": "contract IAxelarGasService",
          "name": "",
          "type": "address"
        }
      ],
      "stateMutability": "view",
      "type": "function"
    },
    {
      "inputs": [],
      "name": "gateway",
      "outputs": [
        {
          "internalType": "contract IAxelarGateway",
          "name": "",
          "type": "address"
        }
      ],
      "stateMutability": "view",
      "type": "function"
    },
    {
      "inputs": [],
      "name": "getAllCampaignAddresses",
      "outputs": [
        {
          "internalType": "address[]",
          "name": "_campaigns",
          "type": "address[]"
        }
      ],
      "stateMutability": "view",
      "type": "function"
    },
    {
      "inputs": [],
      "name": "getAllCampaignIds",
      "outputs": [
        {
          "internalType": "uint256[]",
          "name": "_allCampaignIds",
          "type": "uint256[]"
        }
      ],
      "stateMutability": "view",
      "type": "function"
    },
    {
      "inputs": [],
      "name": "getAllCampaigns",
      "outputs": [
        {
          "internalType": "contract Campaign[]",
          "name": "_allCampaigns",
          "type": "address[]"
        }
      ],
      "stateMutability": "view",
      "type": "function"
    },
    {
      "inputs": [],
      "name": "getOwnerCampaigns",
      "outputs": [
        {
          "internalType": "contract Campaign[]",
          "name": "_allOwnerCampaigns",
          "type": "address[]"
        }
      ],
      "stateMutability": "view",
      "type": "function"
    },
    {
      "inputs": [],
      "name": "getOwnerIds",
      "outputs": [
        {
          "internalType": "uint256[]",
          "name": "_allOwnerIds",
          "type": "uint256[]"
        }
      ],
      "stateMutability": "view",
      "type": "function"
    },
    {
      "inputs": [
        {
          "internalType": "uint256",
          "name": "_campaignId",
          "type": "uint256"
        }
      ],
      "name": "getParticularCampaign",
      "outputs": [
        {
          "internalType": "contract Campaign",
          "name": "_campaign",
          "type": "address"
        }
      ],
      "stateMutability": "view",
      "type": "function"
    },
    {
      "inputs": [
        {
          "internalType": "uint256",
          "name": "",
          "type": "uint256"
        }
      ],
      "name": "idToCampaigns",
      "outputs": [
        {
          "internalType": "contract Campaign",
          "name": "",
          "type": "address"
        }
      ],
      "stateMutability": "view",
      "type": "function"
    },
    {
      "inputs": [
        {
          "internalType": "address",
          "name": "",
          "type": "address"
        },
        {
          "internalType": "uint256",
          "name": "",
          "type": "uint256"
        }
      ],
      "name": "ownerToCampaignIds",
      "outputs": [
        {
          "internalType": "uint256",
          "name": "",
          "type": "uint256"
        }
      ],
      "stateMutability": "view",
      "type": "function"
    },
    {
      "inputs": [
        {
          "internalType": "address",
          "name": "",
          "type": "address"
        },
        {
          "internalType": "uint256",
          "name": "",
          "type": "uint256"
        }
      ],
      "name": "ownerToCampaigns",
      "outputs": [
        {
          "internalType": "contract Campaign",
          "name": "",
          "type": "address"
        }
      ],
      "stateMutability": "view",
      "type": "function"
    },
    {
      "inputs": [
        {
          "internalType": "uint256",
          "name": "_campaignId",
          "type": "uint256"
        },
        {
          "internalType": "address",
          "name": "_satelliteAddr",
          "type": "address"
        }
      ],
      "name": "requestCollections",
      "outputs": [],
      "stateMutability": "payable",
      "type": "function"
    },
    {
      "inputs": [
        {
          "internalType": "string",
          "name": "",
          "type": "string"
        }
      ],
      "name": "spokeChainNameToSpokeChainId",
      "outputs": [
        {
          "internalType": "uint32",
          "name": "",
          "type": "uint32"
        }
      ],
      "stateMutability": "view",
      "type": "function"
    },
    {
      "inputs": [
        {
          "internalType": "uint256",
          "name": "",
          "type": "uint256"
        }
      ],
      "name": "spokeChainNames",
      "outputs": [
        {
          "internalType": "string",
          "name": "",
          "type": "string"
        }
      ],
      "stateMutability": "view",
      "type": "function"
    },
    {
      "inputs": [
        {
          "internalType": "uint256",
          "name": "",
          "type": "uint256"
        }
      ],
      "name": "spokeChains",
      "outputs": [
        {
          "internalType": "uint32",
          "name": "",
          "type": "uint32"
        }
      ],
      "stateMutability": "view",
      "type": "function"
    }
  ],
  "bytecode": "0x60c060405260016005553480156200001657600080fd5b50604051620038183803806200381883398101604081905262000039916200050a565b838282600082806020019051810190620000549190620005c0565b90506000828060200190518101906200006e919062000673565b90506200007c8282620000f3565b815162000091906000906020850190620001e4565b508051620000a79060019060208401906200029a565b50505050506001600160a01b038116620000d45760405163e6c4247b60e01b815260040160405180910390fd5b6001600160a01b039081166080529290921660a05250620007e7915050565b80518251146200013d5760405162461bcd60e51b81526020600482015260116024820152706e6f7420657175616c206c656e6774687360781b604482015260640160405180910390fd5b60005b82518161ffff161015620001df57828161ffff168151811062000167576200016762000745565b60200260200101516002838361ffff16815181106200018a576200018a62000745565b6020026020010151604051620001a191906200075b565b908152604051908190036020019020805463ffffffff9290921663ffffffff1990921691909117905580620001d68162000779565b91505062000140565b505050565b82805482825590600052602060002090600701600890048101928215620002885791602002820160005b838211156200025457835183826101000a81548163ffffffff021916908363ffffffff16021790555092602001926004016020816003010492830192600103026200020e565b8015620002865782816101000a81549063ffffffff021916905560040160208160030104928301926001030262000254565b505b5062000296929150620002fa565b5090565b828054828255906000526020600020908101928215620002ec579160200282015b82811115620002ec5782518051620002db91849160209091019062000311565b5091602001919060010190620002bb565b50620002969291506200038e565b5b80821115620002965760008155600101620002fb565b8280546200031f90620007aa565b90600052602060002090601f01602090048101928262000343576000855562000288565b82601f106200035e57805160ff191683800117855562000288565b8280016001018555821562000288579182015b828111156200028857825182559160200191906001019062000371565b8082111562000296576000620003a58282620003af565b506001016200038e565b508054620003bd90620007aa565b6000825580601f10620003ce575050565b601f016020900490600052602060002090810190620003ee9190620002fa565b50565b80516001600160a01b03811681146200040957600080fd5b919050565b634e487b7160e01b600052604160045260246000fd5b604051601f8201601f191681016001600160401b03811182821017156200044f576200044f6200040e565b604052919050565b60005b83811015620004745781810151838201526020016200045a565b8381111562000484576000848401525b50505050565b60006001600160401b03831115620004a657620004a66200040e565b620004bb601f8401601f191660200162000424565b9050828152838383011115620004d057600080fd5b620004e083602083018462000457565b9392505050565b600082601f830112620004f957600080fd5b620004e0838351602085016200048a565b600080600080608085870312156200052157600080fd5b6200052c85620003f1565b93506200053c60208601620003f1565b60408601519093506001600160401b03808211156200055a57600080fd5b6200056888838901620004e7565b935060608701519150808211156200057f57600080fd5b506200058e87828801620004e7565b91505092959194509250565b60006001600160401b03821115620005b657620005b66200040e565b5060051b60200190565b60006020808385031215620005d457600080fd5b82516001600160401b03811115620005eb57600080fd5b8301601f81018513620005fd57600080fd5b8051620006146200060e826200059a565b62000424565b81815260059190911b820183019083810190878311156200063457600080fd5b928401925b828410156200066857835163ffffffff81168114620006585760008081fd5b8252928401929084019062000639565b979650505050505050565b600060208083850312156200068757600080fd5b82516001600160401b03808211156200069f57600080fd5b818501915085601f830112620006b457600080fd5b8151620006c56200060e826200059a565b81815260059190911b83018401908481019088831115620006e557600080fd5b8585015b838110156200073857805185811115620007035760008081fd5b8601603f81018b13620007165760008081fd5b620007298b89830151604084016200048a565b845250918601918601620006e9565b5098975050505050505050565b634e487b7160e01b600052603260045260246000fd5b600082516200076f81846020870162000457565b9190910192915050565b600061ffff80831681811415620007a057634e487b7160e01b600052601160045260246000fd5b6001019392505050565b600181811c90821680620007bf57607f821691505b60208210811415620007e157634e487b7160e01b600052602260045260246000fd5b50919050565b60805160a051612fe162000837600039600081816104570152818161085b0152610cc40152600081816102180152818161091c01528181610a3f01528181610d850152610eae0152612fe16000f3fe608060405260043610620001cf5760003560e01c8063835f6ac411620000ff578063c76b9c7f1162000095578063d475416b116200006c578063d475416b1462000690578063d857561d14620006c4578063f9ed8ead14620006d4578063fb2afd4e14620006f957600080fd5b8063c76b9c7f146200060c578063cf7dc7711462000646578063d3456278146200066b57600080fd5b80638b2fad6311620000d65780638b2fad6314620004fc578063953a4a101462000514578063be3c840d14620005b3578063be43a6f514620005d857600080fd5b8063835f6ac4146200047957806386cdf60414620004be5780638a358f8914620004e557600080fd5b80633d11c0db1162000175578063545a7c62116200014c578063545a7c6214620003ae5780635c8e1b6114620003c657806366a74b07146200041e5780636a22d8cc146200044357600080fd5b80633d11c0db14620002cf57806340fd2248146200030957806349160658146200038957600080fd5b80631a98b2e011620001aa5780631a98b2e0146200026c5780632e61867614620002915780633201696114620002b857600080fd5b80630418249614620001d4578063116191b61462000204578063184aaae41462000253575b600080fd5b348015620001e157600080fd5b50620001ec62000711565b604051620001fb919062001a8a565b60405180910390f35b3480156200021157600080fd5b506200023a7f000000000000000000000000000000000000000000000000000000000000000081565b6040516001600160a01b039091168152602001620001fb565b6200026a6200026436600462001ae9565b6200076b565b005b3480156200027957600080fd5b506200026a6200028b36600462001b68565b620009f3565b3480156200029e57600080fd5b50620002a960055481565b604051908152602001620001fb565b620002a9620002c936600462001d10565b62000b07565b348015620002dc57600080fd5b506200023a620002ee36600462001d71565b6009602052600090815260409020546001600160a01b031681565b3480156200031657600080fd5b506200035c6200032836600462001d71565b60046020526000908152604090208054600182015460028301546003909301546001600160a01b0390921692909160ff1684565b604080516001600160a01b03909516855260208501939093529183015215156060820152608001620001fb565b3480156200039657600080fd5b506200026a620003a836600462001d8b565b62000e62565b348015620003bb57600080fd5b50620001ec62000f7d565b348015620003d357600080fd5b5062000408620003e536600462001e39565b805160208183018101805160028252928201919093012091525463ffffffff1681565b60405163ffffffff9091168152602001620001fb565b3480156200042b57600080fd5b50620004086200043d36600462001d71565b62000fde565b3480156200045057600080fd5b506200023a7f000000000000000000000000000000000000000000000000000000000000000081565b3480156200048657600080fd5b50620004ad6200049836600462001d71565b600c6020526000908152604090205460ff1681565b6040519015158152602001620001fb565b348015620004cb57600080fd5b50620004d662001019565b604051620001fb919062001e7a565b6200026a620004f636600462001ebd565b6200107c565b3480156200050957600080fd5b50620004d66200118f565b3480156200052157600080fd5b506200057c6200053336600462001eee565b60036020818152600093845260408085209091529183529120805460018201546002830154938301546005909301546001600160a01b03909216939092909160ff918216911685565b604080516001600160a01b039096168652602086019490945292840191909152151560608301521515608082015260a001620001fb565b348015620005c057600080fd5b506200026a620005d236600462001d71565b62001264565b348015620005e557600080fd5b50620004ad620005f736600462001d71565b600b6020526000908152604090205460ff1681565b3480156200061957600080fd5b506200023a6200062b36600462001d71565b6000908152600960205260409020546001600160a01b031690565b3480156200065357600080fd5b50620002a96200066536600462001f1e565b6200132b565b3480156200067857600080fd5b50620002a96200068a36600462001d71565b6200135d565b3480156200069d57600080fd5b50620006b5620006af36600462001d71565b6200137f565b604051620001fb919062001f9d565b348015620006d157600080fd5b50005b348015620006e157600080fd5b506200023a620006f336600462001f1e565b62001434565b3480156200070657600080fd5b50620004d66200146d565b6060600a8054806020026020016040519081016040528092919081815260200182805480156200076157602002820191906000526020600020905b8154815260200190600101908083116200074c575b5050505050905090565b6000828152600c602052604090205460ff1615620007f65760405162461bcd60e51b815260206004820152603660248201527f436f6c6c656374696f6e20706861736520666f7220746869732070726f706f7360448201527f616c2068617320616c726561647920737461727465640000000000000000000060648201526084015b60405180910390fd5b6000828152600c60205260408120805460ff1916600117905580546200081d903462001fcf565b905060005b60005461ffff82161015620009ed57604080516001602082015290810185905260009060600160405160208183030381529060405290507f00000000000000000000000000000000000000000000000000000000000000006001600160a01b0316630c93e3bb843060018661ffff1681548110620008a457620008a462001ff2565b90600052602060002001620008c2896001600160a01b0316620014d8565b86336040518763ffffffff1660e01b8152600401620008e6959493929190620020ed565b6000604051808303818588803b1580156200090057600080fd5b505af115801562000915573d6000803e3d6000fd5b50505050507f00000000000000000000000000000000000000000000000000000000000000006001600160a01b0316631c92115f60018461ffff168154811062000963576200096362001ff2565b9060005260206000200162000981876001600160a01b0316620014d8565b846040518463ffffffff1660e01b8152600401620009a29392919062002152565b600060405180830381600087803b158015620009bd57600080fd5b505af1158015620009d2573d6000803e3d6000fd5b50505050508080620009e4906200219b565b91505062000822565b50505050565b6000858560405162000a07929190620021c0565b6040519081900381207f1876eed900000000000000000000000000000000000000000000000000000000825291506001600160a01b037f00000000000000000000000000000000000000000000000000000000000000001690631876eed99062000a86908e908e908e908e908e9089908d908d908d90600401620021f9565b602060405180830381600087803b15801562000aa157600080fd5b505af115801562000ab6573d6000803e3d6000fd5b505050506040513d601f19601f8201168201806040525081019062000adc919062002274565b62000afa57604051631403112d60e21b815260040160405180910390fd5b5050505050505050505050565b6005805460009181908362000b1c8362002292565b91905055506000338642878560405162000b3690620019f8565b62000b46959493929190620022b0565b604051809103906000f08015801562000b63573d6000803e3d6000fd5b506006805460018181019092557ff652222313e28459528d920b65115c16c04f3efc82aaedc97be59f3f377c0d3f0180546001600160a01b03841673ffffffffffffffffffffffffffffffffffffffff199182168117909255600a80548085019091557fc65a7bb8d6351c1cf70c95a316cc6a92839c986682d98bc35f958f4883f9d2a80186905533600081815260076020908152604080832080548089018255908452828420018054861687179055928252600881528282208054968701815582528082209095018890558781526009909452832080549091169091179055549091501562000e59576000805462000c5d903462001fcf565b905060005b60005461ffff8216101562000e5657600080854260405160200162000c91929190918252602082015260400190565b60408051601f198184030181529082905262000cb19291602001620022f1565b60405160208183030381529060405290507f00000000000000000000000000000000000000000000000000000000000000006001600160a01b0316630c93e3bb843060018661ffff168154811062000d0d5762000d0d62001ff2565b9060005260206000200162000d2b8c6001600160a01b0316620014d8565b86336040518763ffffffff1660e01b815260040162000d4f959493929190620020ed565b6000604051808303818588803b15801562000d6957600080fd5b505af115801562000d7e573d6000803e3d6000fd5b50505050507f00000000000000000000000000000000000000000000000000000000000000006001600160a01b0316631c92115f60018461ffff168154811062000dcc5762000dcc62001ff2565b9060005260206000200162000dea8a6001600160a01b0316620014d8565b846040518463ffffffff1660e01b815260040162000e0b9392919062002152565b600060405180830381600087803b15801562000e2657600080fd5b505af115801562000e3b573d6000803e3d6000fd5b5050505050808062000e4d906200219b565b91505062000c62565b50505b50949350505050565b6000828260405162000e76929190620021c0565b6040519081900381207f5f6970c300000000000000000000000000000000000000000000000000000000825291506001600160a01b037f00000000000000000000000000000000000000000000000000000000000000001690635f6970c39062000eef908b908b908b908b908b9089906004016200230f565b602060405180830381600087803b15801562000f0a57600080fd5b505af115801562000f1f573d6000803e3d6000fd5b505050506040513d601f19601f8201168201806040525081019062000f45919062002274565b62000f6357604051631403112d60e21b815260040160405180910390fd5b62000f73878787878787620017dc565b5050505050505050565b336000908152600860209081526040918290208054835181840281018401909452808452606093928301828280156200076157602002820191906000526020600020908154815260200190600101908083116200074c575050505050905090565b6000818154811062000fef57600080fd5b9060005260206000209060089182820401919006600402915054906101000a900463ffffffff1681565b606060068054806020026020016040519081016040528092919081815260200182805480156200076157602002820191906000526020600020905b81546001600160a01b0316815260019091019060200180831162001054575050505050905090565b6000838152600960205260409020546001600160a01b0316620010e25760405162461bcd60e51b815260206004820152601460248201527f6e6f7420612076616c69642063616d706169676e0000000000000000000000006044820152606401620007ed565b813411620011595760405162461bcd60e51b815260206004820152603360248201527f73656e7420616d6f756e74206973206c6f776572207468616e20616d6f756e7460448201527f20796f752077616e7420746f20646f6e617465000000000000000000000000006064820152608401620007ed565b6040516001600160a01b038216903480156108fc02916000818181858888f19350505050158015620009ed573d6000803e3d6000fd5b606060055467ffffffffffffffff811115620011af57620011af62001c4f565b604051908082528060200260200182016040528015620011d9578160200160208202803683370190505b50905060015b60055481101562001260576006818154811062001200576200120062001ff2565b9060005260206000200160009054906101000a90046001600160a01b031682828151811062001233576200123362001ff2565b6001600160a01b039092166020928302919091019091015280620012578162002292565b915050620011df565b5090565b600160005b60005461ffff82161080156200127c5750815b156200130a57818015620012f35750600360008481526020019081526020016000206000808361ffff1681548110620012b957620012b962001ff2565b6000918252602080832060088304015460079092166004026101000a90910463ffffffff16835282019290925260400190206005015460ff165b91508062001301816200219b565b91505062001269565b506000918252600b6020526040909120805460ff1916911515919091179055565b600860205281600052604060002081815481106200134857600080fd5b90600052602060002001600091509150505481565b600a81815481106200136e57600080fd5b600091825260209091200154905081565b600181815481106200139057600080fd5b906000526020600020016000915090508054620013ad9062002008565b80601f0160208091040260200160405190810160405280929190818152602001828054620013db9062002008565b80156200142c5780601f1062001400576101008083540402835291602001916200142c565b820191906000526020600020905b8154815290600101906020018083116200140e57829003601f168201915b505050505081565b600760205281600052604060002081815481106200145157600080fd5b6000918252602090912001546001600160a01b03169150829050565b3360009081526007602090815260409182902080548351818402810184019094528084526060939283018282801562000761576020028201919060005260206000209081546001600160a01b0316815260019091019060200180831162001054575050505050905090565b604051606082811b6bffffffffffffffffffffffff191660208301529060009060340160408051601f198184030181528282528051838301909252601083527f3031323334353637383961626364656600000000000000000000000000000000602084015280519093509091906000906200155590600262002354565b6200156290600262002376565b67ffffffffffffffff8111156200157d576200157d62001c4f565b6040519080825280601f01601f191660200182016040528015620015a8576020820181803683370190505b5090507f300000000000000000000000000000000000000000000000000000000000000081600081518110620015e257620015e262001ff2565b60200101906001600160f81b031916908160001a9053507f78000000000000000000000000000000000000000000000000000000000000008160018151811062001630576200163062001ff2565b60200101906001600160f81b031916908160001a90535060005b83811015620017d2578260048683815181106200166b576200166b62001ff2565b016020015182517fff0000000000000000000000000000000000000000000000000000000000000090911690911c60f81c908110620016ae57620016ae62001ff2565b01602001517fff000000000000000000000000000000000000000000000000000000000000001682620016e383600262002354565b620016f090600262002376565b8151811062001703576200170362001ff2565b60200101906001600160f81b031916908160001a9053508285828151811062001730576200173062001ff2565b602091010151815160f89190911c600f1690811062001753576200175362001ff2565b01602001517fff0000000000000000000000000000000000000000000000000000000000000016826200178883600262002354565b6200179590600362002376565b81518110620017a857620017a862001ff2565b60200101906001600160f81b031916908160001a905350620017ca8162002292565b90506200164a565b5095945050505050565b600060028686604051620017f2929190620021c0565b90815260405160209181900382019020549083015163ffffffff909116915061ffff8116620018275762001827828462001830565b50505050505050565b6000806000806000858060200190518101906200184e919062002391565b95509550955095509550506003600086815260200190815260200160002060008863ffffffff1663ffffffff16815260200190815260200160002060050160009054906101000a900460ff1615620018e95760405162461bcd60e51b815260206004820152601360248201527f416c726561647920696e697469616c697a6564000000000000000000000000006044820152606401620007ed565b6040518060c00160405280856001600160a01b031681526020018681526020018481526020018315158152602001828152602001600115158152506003600087815260200190815260200160002060008963ffffffff1663ffffffff16815260200190815260200160002060008201518160000160006101000a8154816001600160a01b0302191690836001600160a01b03160217905550602082015181600101556040820151816002015560608201518160030160006101000a81548160ff0219169083151502179055506080820151816004019080519060200190620019d392919062001a06565b5060a091909101516005909101805460ff191691151591909117905550505050505050565b610b0280620024aa83390190565b82805482825590600052602060002090810192821562001a6b579160200282015b8281111562001a6b578251825473ffffffffffffffffffffffffffffffffffffffff19166001600160a01b0390911617825560209092019160019091019062001a27565b50620012609291505b8082111562001260576000815560010162001a74565b6020808252825182820181905260009190848201906040850190845b8181101562001ac45783518352928401929184019160010162001aa6565b50909695505050505050565b6001600160a01b038116811462001ae657600080fd5b50565b6000806040838503121562001afd57600080fd5b82359150602083013562001b118162001ad0565b809150509250929050565b60008083601f84011262001b2f57600080fd5b50813567ffffffffffffffff81111562001b4857600080fd5b60208301915083602082850101111562001b6157600080fd5b9250929050565b60008060008060008060008060008060c08b8d03121562001b8857600080fd5b8a35995060208b013567ffffffffffffffff8082111562001ba857600080fd5b62001bb68e838f0162001b1c565b909b50995060408d013591508082111562001bd057600080fd5b62001bde8e838f0162001b1c565b909950975060608d013591508082111562001bf857600080fd5b62001c068e838f0162001b1c565b909750955060808d013591508082111562001c2057600080fd5b5062001c2f8d828e0162001b1c565b9150809450508092505060a08b013590509295989b9194979a5092959850565b634e487b7160e01b600052604160045260246000fd5b604051601f8201601f1916810167ffffffffffffffff8111828210171562001c915762001c9162001c4f565b604052919050565b600082601f83011262001cab57600080fd5b813567ffffffffffffffff81111562001cc85762001cc862001c4f565b62001cdd601f8201601f191660200162001c65565b81815284602083860101111562001cf357600080fd5b816020850160208301376000918101602001919091529392505050565b60008060006060848603121562001d2657600080fd5b833567ffffffffffffffff81111562001d3e57600080fd5b62001d4c8682870162001c99565b93505060208401359150604084013562001d668162001ad0565b809150509250925092565b60006020828403121562001d8457600080fd5b5035919050565b60008060008060008060006080888a03121562001da757600080fd5b87359650602088013567ffffffffffffffff8082111562001dc757600080fd5b62001dd58b838c0162001b1c565b909850965060408a013591508082111562001def57600080fd5b62001dfd8b838c0162001b1c565b909650945060608a013591508082111562001e1757600080fd5b5062001e268a828b0162001b1c565b989b979a50959850939692959293505050565b60006020828403121562001e4c57600080fd5b813567ffffffffffffffff81111562001e6457600080fd5b62001e728482850162001c99565b949350505050565b6020808252825182820181905260009190848201906040850190845b8181101562001ac45783516001600160a01b03168352928401929184019160010162001e96565b60008060006060848603121562001ed357600080fd5b8335925060208401359150604084013562001d668162001ad0565b6000806040838503121562001f0257600080fd5b82359150602083013563ffffffff8116811462001b1157600080fd5b6000806040838503121562001f3257600080fd5b823562001f3f8162001ad0565b946020939093013593505050565b6000815180845260005b8181101562001f755760208185018101518683018201520162001f57565b8181111562001f88576000602083870101525b50601f01601f19169290920160200192915050565b60208152600062001fb2602083018462001f4d565b9392505050565b634e487b7160e01b600052601160045260246000fd5b60008262001fed57634e487b7160e01b600052601260045260246000fd5b500490565b634e487b7160e01b600052603260045260246000fd5b600181811c908216806200201d57607f821691505b602082108114156200203f57634e487b7160e01b600052602260045260246000fd5b50919050565b8054600090600181811c90808316806200206057607f831692505b60208084108214156200208357634e487b7160e01b600052602260045260246000fd5b83885260208801828015620020a15760018114620020b357620020e0565b60ff19871682528282019750620020e0565b60008981526020902060005b87811015620020da57815484820152908601908401620020bf565b83019850505b5050505050505092915050565b60006001600160a01b03808816835260a060208401526200211260a084018862002045565b838103604085015262002126818862001f4d565b905083810360608501526200213c818762001f4d565b9250508084166080840152509695505050505050565b60608152600062002167606083018662002045565b82810360208401526200217b818662001f4d565b9050828103604084015262002191818562001f4d565b9695505050505050565b600061ffff80831681811415620021b657620021b662001fb9565b6001019392505050565b8183823760009101908152919050565b81835281816020850137506000828201602090810191909152601f909101601f19169091010190565b89815260c0602082015260006200221560c083018a8c620021d0565b82810360408401526200222a81898b620021d0565b9050866060840152828103608084015262002247818688620021d0565b9150508260a08301529a9950505050505050505050565b805180151581146200226f57600080fd5b919050565b6000602082840312156200228757600080fd5b62001fb2826200225e565b6000600019821415620022a957620022a962001fb9565b5060010190565b6001600160a01b038616815260a060208201526000620022d460a083018762001f4d565b604083019590955250606081019290925260809091015292915050565b60ff8316815260406020820152600062001e72604083018462001f4d565b8681526080602082015260006200232b608083018789620021d0565b828103604084015262002340818688620021d0565b915050826060830152979650505050505050565b600081600019048311821515161562002371576200237162001fb9565b500290565b600082198211156200238c576200238c62001fb9565b500190565b60008060008060008060c08789031215620023ab57600080fd5b865161ffff81168114620023be57600080fd5b8096505060208088015195506040880151620023da8162001ad0565b60608901519095509350620023f2608089016200225e565b925060a088015167ffffffffffffffff808211156200241057600080fd5b818a0191508a601f8301126200242557600080fd5b8151818111156200243a576200243a62001c4f565b8060051b91506200244d84830162001c65565b818152918301840191848101908d8411156200246857600080fd5b938501935b83851015620024965784519250620024858362001ad0565b82825293850193908501906200246d565b809650505050505050929550929550929556fe60806040523480156200001157600080fd5b5060405162000b0238038062000b02833981016040819052620000349162000136565b600080546001600160a01b0319166001600160a01b0387161790558351620000649060019060208701906200007a565b50600392909255600555600255506200028c9050565b82805462000088906200024f565b90600052602060002090601f016020900481019282620000ac5760008555620000f7565b82601f10620000c757805160ff1916838001178555620000f7565b82800160010185558215620000f7579182015b82811115620000f7578251825591602001919060010190620000da565b506200010592915062000109565b5090565b5b808211156200010557600081556001016200010a565b634e487b7160e01b600052604160045260246000fd5b600080600080600060a086880312156200014f57600080fd5b85516001600160a01b03811681146200016757600080fd5b602087810151919650906001600160401b03808211156200018757600080fd5b818901915089601f8301126200019c57600080fd5b815181811115620001b157620001b162000120565b604051601f8201601f19908116603f01168101908382118183101715620001dc57620001dc62000120565b816040528281528c86848701011115620001f557600080fd5b600093505b82841015620002195784840186015181850187015292850192620001fa565b828411156200022b5760008684830101525b60408c015160608d01516080909d01519b9e919d509b9a9950975050505050505050565b600181811c908216806200026457607f821691505b602082108114156200028657634e487b7160e01b600052602260045260246000fd5b50919050565b610866806200029c6000396000f3fe6080604052600436106100b55760003560e01c8063b5aebc8011610069578063cf09e0d01161004e578063cf09e0d0146101c3578063d4b83992146101d9578063dfb8dca9146101ef57600080fd5b8063b5aebc8014610180578063ca0cdea8146101a357600080fd5b8063599a597f1161009a578063599a597f146100f65780638da5cb5b14610124578063af640d0f1461015c57600080fd5b806339c80ab1146100c15780634e71d92d146100ec57600080fd5b366100bc57005b600080fd5b3480156100cd57600080fd5b506100d6610205565b6040516100e3919061068a565b60405180910390f35b6100f4610293565b005b34801561010257600080fd5b506101166101113660046106a4565b610355565b6040516100e39291906106bd565b34801561013057600080fd5b50600054610144906001600160a01b031681565b6040516001600160a01b0390911681526020016100e3565b34801561016857600080fd5b5061017260025481565b6040519081526020016100e3565b61019361018e3660046106f5565b610411565b60405190151581526020016100e3565b3480156101af57600080fd5b506101166101be3660046107a6565b61050e565b3480156101cf57600080fd5b5061017260035481565b3480156101e557600080fd5b5061017260055481565b3480156101fb57600080fd5b5061017260045481565b60018054610212906107cf565b80601f016020809104026020016040519081016040528092919081815260200182805461023e906107cf565b801561028b5780601f106102605761010080835404028352916020019161028b565b820191906000526020600020905b81548152906001019060200180831161026e57829003601f168201915b505050505081565b6000546001600160a01b031633146102aa57600080fd5b600080546040516001600160a01b039091169047908381818185875af1925050503d80600081146102f7576040519150601f19603f3d011682016040523d82523d6000602084013e6102fc565b606091505b50509050806103525760405162461bcd60e51b815260206004820152600f60248201527f4661696c656420746f20636c61696d000000000000000000000000000000000060448201526064015b60405180910390fd5b50565b6007818154811061036557600080fd5b9060005260206000209060020201600091509050806000018054610388906107cf565b80601f01602080910402602001604051908101604052809291908181526020018280546103b4906107cf565b80156104015780601f106103d657610100808354040283529160200191610401565b820191906000526020600020905b8154815290600101906020018083116103e457829003601f168201915b5050505050908060010154905082565b60008034116104625760405162461bcd60e51b815260206004820152601960248201527f596f752063616e6e6f7420646f6e6174652062656c6f772030000000000000006044820152606401610349565b60003490508060046000828254610479919061080a565b9091555050336000908152600660209081526040909120845190916104a2918391870190610529565b5034600180830191909155600780549182018155600052815482916002027fa66cc928b5edb82af9bd49922954155ab7b0942694bea4ce44661d9a8736c6880190819083906104f0906107cf565b6104fb9291906105ad565b5060019182015490820155949350505050565b600660205260009081526040902080548190610388906107cf565b828054610535906107cf565b90600052602060002090601f016020900481019282610557576000855561059d565b82601f1061057057805160ff191683800117855561059d565b8280016001018555821561059d579182015b8281111561059d578251825591602001919060010190610582565b506105a9929150610628565b5090565b8280546105b9906107cf565b90600052602060002090601f0160209004810192826105db576000855561059d565b82601f106105ec578054855561059d565b8280016001018555821561059d57600052602060002091601f016020900482015b8281111561059d57825482559160010191906001019061060d565b5b808211156105a95760008155600101610629565b6000815180845260005b8181101561066357602081850181015186830182015201610647565b81811115610675576000602083870101525b50601f01601f19169290920160200192915050565b60208152600061069d602083018461063d565b9392505050565b6000602082840312156106b657600080fd5b5035919050565b6040815260006106d0604083018561063d565b90508260208301529392505050565b634e487b7160e01b600052604160045260246000fd5b60006020828403121561070757600080fd5b813567ffffffffffffffff8082111561071f57600080fd5b818401915084601f83011261073357600080fd5b813581811115610745576107456106df565b604051601f8201601f19908116603f0116810190838211818310171561076d5761076d6106df565b8160405282815287602084870101111561078657600080fd5b826020860160208301376000928101602001929092525095945050505050565b6000602082840312156107b857600080fd5b81356001600160a01b038116811461069d57600080fd5b600181811c908216806107e357607f821691505b6020821081141561080457634e487b7160e01b600052602260045260246000fd5b50919050565b6000821982111561082b57634e487b7160e01b600052601160045260246000fd5b50019056fea26469706673582212200452194c7861c0a87919bd254d273503113168aab984f852bd6a36a3547d483864736f6c63430008090033a2646970667358221220ab712ec978f4f1f5f9a31b5f4ef9d4213a4f5c488d153c2a03976b081e0366cc64736f6c63430008090033",
  "linkReferences": {},
  "deployedLinkReferences": {}
}