{
  "_format": "hh-sol-artifact-1",
  "contractName": "Campaign",
  "sourceName": "contracts/Campaign.sol",
  "abi": [
    {
      "inputs": [
        {
          "internalType": "address",
          "name": "_owner",
          "type": "address"
        },
        {
          "internalType": "string",
          "name": "_campaignCID",
          "type": "string"
        },
        {
          "internalType": "uint256",
          "name": "_createdAt",
          "type": "uint256"
        },
        {
          "internalType": "uint256",
          "name": "_target",
          "type": "uint256"
        },
        {
          "internalType": "uint256",
          "name": "_id",
          "type": "uint256"
        }
      ],
      "stateMutability": "nonpayable",
      "type": "constructor"
    },
    {
      "inputs": [
        {
          "internalType": "uint256",
          "name": "",
          "type": "uint256"
        }
      ],
      "name": "_ALL_DONORS",
      "outputs": [
        {
          "internalType": "string",
          "name": "name",
          "type": "string"
        },
        {
          "internalType": "uint256",
          "name": "amountDonated",
          "type": "uint256"
        }
      ],
      "stateMutability": "view",
      "type": "function"
    },
    {
      "inputs": [],
      "name": "campaignCID",
      "outputs": [
        {
          "internalType": "string",
          "name": "",
          "type": "string"
        }
      ],
      "stateMutability": "view",
      "type": "function"
    },
    {
      "inputs": [],
      "name": "claim",
      "outputs": [],
      "stateMutability": "payable",
      "type": "function"
    },
    {
      "inputs": [],
      "name": "createdAt",
      "outputs": [
        {
          "internalType": "uint256",
          "name": "",
          "type": "uint256"
        }
      ],
      "stateMutability": "view",
      "type": "function"
    },
    {
      "inputs": [
        {
          "internalType": "string",
          "name": "_name",
          "type": "string"
        }
      ],
      "name": "donate",
      "outputs": [
        {
          "internalType": "bool",
          "name": "",
          "type": "bool"
        }
      ],
      "stateMutability": "payable",
      "type": "function"
    },
    {
      "inputs": [
        {
          "internalType": "address",
          "name": "",
          "type": "address"
        }
      ],
      "name": "donors",
      "outputs": [
        {
          "internalType": "string",
          "name": "name",
          "type": "string"
        },
        {
          "internalType": "uint256",
          "name": "amountDonated",
          "type": "uint256"
        }
      ],
      "stateMutability": "view",
      "type": "function"
    },
    {
      "inputs": [],
      "name": "id",
      "outputs": [
        {
          "internalType": "uint256",
          "name": "",
          "type": "uint256"
        }
      ],
      "stateMutability": "view",
      "type": "function"
    },
    {
      "inputs": [],
      "name": "owner",
      "outputs": [
        {
          "internalType": "address",
          "name": "",
          "type": "address"
        }
      ],
      "stateMutability": "view",
      "type": "function"
    },
    {
      "inputs": [],
      "name": "raisedFunds",
      "outputs": [
        {
          "internalType": "uint256",
          "name": "",
          "type": "uint256"
        }
      ],
      "stateMutability": "view",
      "type": "function"
    },
    {
      "inputs": [],
      "name": "target",
      "outputs": [
        {
          "internalType": "uint256",
          "name": "",
          "type": "uint256"
        }
      ],
      "stateMutability": "view",
      "type": "function"
    },
    {
      "stateMutability": "payable",
      "type": "receive"
    }
  ],
  "bytecode": "0x60806040523480156200001157600080fd5b5060405162000b0238038062000b02833981016040819052620000349162000136565b600080546001600160a01b0319166001600160a01b0387161790558351620000649060019060208701906200007a565b50600392909255600555600255506200028c9050565b82805462000088906200024f565b90600052602060002090601f016020900481019282620000ac5760008555620000f7565b82601f10620000c757805160ff1916838001178555620000f7565b82800160010185558215620000f7579182015b82811115620000f7578251825591602001919060010190620000da565b506200010592915062000109565b5090565b5b808211156200010557600081556001016200010a565b634e487b7160e01b600052604160045260246000fd5b600080600080600060a086880312156200014f57600080fd5b85516001600160a01b03811681146200016757600080fd5b602087810151919650906001600160401b03808211156200018757600080fd5b818901915089601f8301126200019c57600080fd5b815181811115620001b157620001b162000120565b604051601f8201601f19908116603f01168101908382118183101715620001dc57620001dc62000120565b816040528281528c86848701011115620001f557600080fd5b600093505b82841015620002195784840186015181850187015292850192620001fa565b828411156200022b5760008684830101525b60408c015160608d01516080909d01519b9e919d509b9a9950975050505050505050565b600181811c908216806200026457607f821691505b602082108114156200028657634e487b7160e01b600052602260045260246000fd5b50919050565b610866806200029c6000396000f3fe6080604052600436106100b55760003560e01c8063b5aebc8011610069578063cf09e0d01161004e578063cf09e0d0146101c3578063d4b83992146101d9578063dfb8dca9146101ef57600080fd5b8063b5aebc8014610180578063ca0cdea8146101a357600080fd5b8063599a597f1161009a578063599a597f146100f65780638da5cb5b14610124578063af640d0f1461015c57600080fd5b806339c80ab1146100c15780634e71d92d146100ec57600080fd5b366100bc57005b600080fd5b3480156100cd57600080fd5b506100d6610205565b6040516100e3919061068a565b60405180910390f35b6100f4610293565b005b34801561010257600080fd5b506101166101113660046106a4565b610355565b6040516100e39291906106bd565b34801561013057600080fd5b50600054610144906001600160a01b031681565b6040516001600160a01b0390911681526020016100e3565b34801561016857600080fd5b5061017260025481565b6040519081526020016100e3565b61019361018e3660046106f5565b610411565b60405190151581526020016100e3565b3480156101af57600080fd5b506101166101be3660046107a6565b61050e565b3480156101cf57600080fd5b5061017260035481565b3480156101e557600080fd5b5061017260055481565b3480156101fb57600080fd5b5061017260045481565b60018054610212906107cf565b80601f016020809104026020016040519081016040528092919081815260200182805461023e906107cf565b801561028b5780601f106102605761010080835404028352916020019161028b565b820191906000526020600020905b81548152906001019060200180831161026e57829003601f168201915b505050505081565b6000546001600160a01b031633146102aa57600080fd5b600080546040516001600160a01b039091169047908381818185875af1925050503d80600081146102f7576040519150601f19603f3d011682016040523d82523d6000602084013e6102fc565b606091505b50509050806103525760405162461bcd60e51b815260206004820152600f60248201527f4661696c656420746f20636c61696d000000000000000000000000000000000060448201526064015b60405180910390fd5b50565b6007818154811061036557600080fd5b9060005260206000209060020201600091509050806000018054610388906107cf565b80601f01602080910402602001604051908101604052809291908181526020018280546103b4906107cf565b80156104015780601f106103d657610100808354040283529160200191610401565b820191906000526020600020905b8154815290600101906020018083116103e457829003601f168201915b5050505050908060010154905082565b60008034116104625760405162461bcd60e51b815260206004820152601960248201527f596f752063616e6e6f7420646f6e6174652062656c6f772030000000000000006044820152606401610349565b60003490508060046000828254610479919061080a565b9091555050336000908152600660209081526040909120845190916104a2918391870190610529565b5034600180830191909155600780549182018155600052815482916002027fa66cc928b5edb82af9bd49922954155ab7b0942694bea4ce44661d9a8736c6880190819083906104f0906107cf565b6104fb9291906105ad565b5060019182015490820155949350505050565b600660205260009081526040902080548190610388906107cf565b828054610535906107cf565b90600052602060002090601f016020900481019282610557576000855561059d565b82601f1061057057805160ff191683800117855561059d565b8280016001018555821561059d579182015b8281111561059d578251825591602001919060010190610582565b506105a9929150610628565b5090565b8280546105b9906107cf565b90600052602060002090601f0160209004810192826105db576000855561059d565b82601f106105ec578054855561059d565b8280016001018555821561059d57600052602060002091601f016020900482015b8281111561059d57825482559160010191906001019061060d565b5b808211156105a95760008155600101610629565b6000815180845260005b8181101561066357602081850181015186830182015201610647565b81811115610675576000602083870101525b50601f01601f19169290920160200192915050565b60208152600061069d602083018461063d565b9392505050565b6000602082840312156106b657600080fd5b5035919050565b6040815260006106d0604083018561063d565b90508260208301529392505050565b634e487b7160e01b600052604160045260246000fd5b60006020828403121561070757600080fd5b813567ffffffffffffffff8082111561071f57600080fd5b818401915084601f83011261073357600080fd5b813581811115610745576107456106df565b604051601f8201601f19908116603f0116810190838211818310171561076d5761076d6106df565b8160405282815287602084870101111561078657600080fd5b826020860160208301376000928101602001929092525095945050505050565b6000602082840312156107b857600080fd5b81356001600160a01b038116811461069d57600080fd5b600181811c908216806107e357607f821691505b6020821081141561080457634e487b7160e01b600052602260045260246000fd5b50919050565b6000821982111561082b57634e487b7160e01b600052601160045260246000fd5b50019056fea26469706673582212200452194c7861c0a87919bd254d273503113168aab984f852bd6a36a3547d483864736f6c63430008090033",
  "linkReferences": {},
  "deployedLinkReferences": {}
}