{
  "_format": "hh-sol-artifact-1",
  "contractName": "DAOSatellite",
  "sourceName": "contracts/DAOSatellite.sol",
  "abi": [
    {
      "inputs": [
        {
          "internalType": "string",
          "name": "_hubChain",
          "type": "string"
        },
        {
          "internalType": "address",
          "name": "_gateway",
          "type": "address"
        },
        {
          "internalType": "address",
          "name": "_gasService",
          "type": "address"
        },
        {
          "internalType": "contract IVotes",
          "name": "_token",
          "type": "address"
        },
        {
          "internalType": "uint256",
          "name": "_targetSecondsPerBlock",
          "type": "uint256"
        }
      ],
      "stateMutability": "payable",
      "type": "constructor"
    },
    {
      "inputs": [],
      "name": "AlreadyInitialized",
      "type": "error"
    },
    {
      "inputs": [],
      "name": "InvalidAddress",
      "type": "error"
    },
    {
      "inputs": [],
      "name": "InvalidCodeHash",
      "type": "error"
    },
    {
      "inputs": [],
      "name": "InvalidImplementation",
      "type": "error"
    },
    {
      "inputs": [],
      "name": "InvalidOwner",
      "type": "error"
    },
    {
      "inputs": [],
      "name": "NotApprovedByGateway",
      "type": "error"
    },
    {
      "inputs": [],
      "name": "NotOwner",
      "type": "error"
    },
    {
      "inputs": [],
      "name": "NotProxy",
      "type": "error"
    },
    {
      "inputs": [],
      "name": "SetupFailed",
      "type": "error"
    },
    {
      "anonymous": false,
      "inputs": [
        {
          "indexed": true,
          "internalType": "address",
          "name": "newOwner",
          "type": "address"
        }
      ],
      "name": "OwnershipTransferStarted",
      "type": "event"
    },
    {
      "anonymous": false,
      "inputs": [
        {
          "indexed": true,
          "internalType": "address",
          "name": "newOwner",
          "type": "address"
        }
      ],
      "name": "OwnershipTransferred",
      "type": "event"
    },
    {
      "anonymous": false,
      "inputs": [
        {
          "indexed": true,
          "internalType": "address",
          "name": "newImplementation",
          "type": "address"
        }
      ],
      "name": "Upgraded",
      "type": "event"
    },
    {
      "inputs": [],
      "name": "acceptOwnership",
      "outputs": [],
      "stateMutability": "nonpayable",
      "type": "function"
    },
    {
      "inputs": [
        {
          "internalType": "uint256",
          "name": "proposalId",
          "type": "uint256"
        },
        {
          "internalType": "uint8",
          "name": "support",
          "type": "uint8"
        }
      ],
      "name": "castVote",
      "outputs": [
        {
          "internalType": "uint256",
          "name": "balance",
          "type": "uint256"
        }
      ],
      "stateMutability": "nonpayable",
      "type": "function"
    },
    {
      "inputs": [],
      "name": "chainName",
      "outputs": [
        {
          "internalType": "string",
          "name": "",
          "type": "string"
        }
      ],
      "stateMutability": "view",
      "type": "function"
    },
    {
      "inputs": [],
      "name": "contractId",
      "outputs": [
        {
          "internalType": "bytes32",
          "name": "",
          "type": "bytes32"
        }
      ],
      "stateMutability": "pure",
      "type": "function"
    },
    {
      "inputs": [
        {
          "internalType": "bytes32",
          "name": "commandId",
          "type": "bytes32"
        },
        {
          "internalType": "string",
          "name": "sourceChain",
          "type": "string"
        },
        {
          "internalType": "string",
          "name": "sourceAddress",
          "type": "string"
        },
        {
          "internalType": "bytes",
          "name": "payload",
          "type": "bytes"
        }
      ],
      "name": "execute",
      "outputs": [],
      "stateMutability": "nonpayable",
      "type": "function"
    },
    {
      "inputs": [
        {
          "internalType": "bytes32",
          "name": "commandId",
          "type": "bytes32"
        },
        {
          "internalType": "string",
          "name": "sourceChain",
          "type": "string"
        },
        {
          "internalType": "string",
          "name": "sourceAddress",
          "type": "string"
        },
        {
          "internalType": "bytes",
          "name": "payload",
          "type": "bytes"
        },
        {
          "internalType": "string",
          "name": "tokenSymbol",
          "type": "string"
        },
        {
          "internalType": "uint256",
          "name": "amount",
          "type": "uint256"
        }
      ],
      "name": "executeWithToken",
      "outputs": [],
      "stateMutability": "nonpayable",
      "type": "function"
    },
    {
      "inputs": [],
      "name": "gasService",
      "outputs": [
        {
          "internalType": "contract IAxelarGasService",
          "name": "",
          "type": "address"
        }
      ],
      "stateMutability": "view",
      "type": "function"
    },
    {
      "inputs": [],
      "name": "gateway",
      "outputs": [
        {
          "internalType": "contract IAxelarGateway",
          "name": "",
          "type": "address"
        }
      ],
      "stateMutability": "view",
      "type": "function"
    },
    {
      "inputs": [],
      "name": "hubChain",
      "outputs": [
        {
          "internalType": "string",
          "name": "",
          "type": "string"
        }
      ],
      "stateMutability": "view",
      "type": "function"
    },
    {
      "inputs": [],
      "name": "implementation",
      "outputs": [
        {
          "internalType": "address",
          "name": "implementation_",
          "type": "address"
        }
      ],
      "stateMutability": "view",
      "type": "function"
    },
    {
      "inputs": [
        {
          "internalType": "uint256",
          "name": "proposalId",
          "type": "uint256"
        }
      ],
      "name": "isProposal",
      "outputs": [
        {
          "internalType": "bool",
          "name": "",
          "type": "bool"
        }
      ],
      "stateMutability": "view",
      "type": "function"
    },
    {
      "inputs": [],
      "name": "owner",
      "outputs": [
        {
          "internalType": "address",
          "name": "owner_",
          "type": "address"
        }
      ],
      "stateMutability": "view",
      "type": "function"
    },
    {
      "inputs": [],
      "name": "pendingOwner",
      "outputs": [
        {
          "internalType": "address",
          "name": "owner_",
          "type": "address"
        }
      ],
      "stateMutability": "view",
      "type": "function"
    },
    {
      "inputs": [
        {
          "internalType": "uint256",
          "name": "",
          "type": "uint256"
        }
      ],
      "name": "proposalVotes",
      "outputs": [
        {
          "internalType": "uint256",
          "name": "againstVotes",
          "type": "uint256"
        },
        {
          "internalType": "uint256",
          "name": "forVotes",
          "type": "uint256"
        },
        {
          "internalType": "uint256",
          "name": "abstainVotes",
          "type": "uint256"
        }
      ],
      "stateMutability": "view",
      "type": "function"
    },
    {
      "inputs": [
        {
          "internalType": "uint256",
          "name": "",
          "type": "uint256"
        }
      ],
      "name": "proposals",
      "outputs": [
        {
          "internalType": "uint256",
          "name": "localVoteStart",
          "type": "uint256"
        },
        {
          "internalType": "bool",
          "name": "voteFinished",
          "type": "bool"
        }
      ],
      "stateMutability": "view",
      "type": "function"
    },
    {
      "inputs": [
        {
          "internalType": "bytes",
          "name": "data",
          "type": "bytes"
        }
      ],
      "name": "setup",
      "outputs": [],
      "stateMutability": "nonpayable",
      "type": "function"
    },
    {
      "inputs": [],
      "name": "targetSecondsPerBlock",
      "outputs": [
        {
          "internalType": "uint256",
          "name": "",
          "type": "uint256"
        }
      ],
      "stateMutability": "view",
      "type": "function"
    },
    {
      "inputs": [],
      "name": "token",
      "outputs": [
        {
          "internalType": "contract IVotes",
          "name": "",
          "type": "address"
        }
      ],
      "stateMutability": "view",
      "type": "function"
    },
    {
      "inputs": [
        {
          "internalType": "address",
          "name": "newOwner",
          "type": "address"
        }
      ],
      "name": "transferOwnership",
      "outputs": [],
      "stateMutability": "nonpayable",
      "type": "function"
    },
    {
      "inputs": [
        {
          "internalType": "address",
          "name": "newImplementation",
          "type": "address"
        },
        {
          "internalType": "bytes32",
          "name": "newImplementationCodeHash",
          "type": "bytes32"
        },
        {
          "internalType": "bytes",
          "name": "params",
          "type": "bytes"
        }
      ],
      "name": "upgrade",
      "outputs": [],
      "stateMutability": "nonpayable",
      "type": "function"
    }
  ],
  "bytecode": "0x610100604052604051620022cc380380620022cc83398101604081905262000027916200016d565b836001600160a01b038116620000505760405163e6c4247b60e01b815260040160405180910390fd5b6001600160a01b03908116608052831660a05284516200007890600190602088019062000094565b506001600160a01b0390911660c05260e05250620002ca915050565b828054620000a2906200028d565b90600052602060002090601f016020900481019282620000c6576000855562000111565b82601f10620000e157805160ff191683800117855562000111565b8280016001018555821562000111579182015b8281111562000111578251825591602001919060010190620000f4565b506200011f92915062000123565b5090565b5b808211156200011f576000815560010162000124565b634e487b7160e01b600052604160045260246000fd5b80516001600160a01b03811681146200016857600080fd5b919050565b600080600080600060a086880312156200018657600080fd5b85516001600160401b03808211156200019e57600080fd5b818801915088601f830112620001b357600080fd5b815181811115620001c857620001c86200013a565b604051601f8201601f19908116603f01168101908382118183101715620001f357620001f36200013a565b81604052828152602093508b848487010111156200021057600080fd5b600091505b8282101562000234578482018401518183018501529083019062000215565b82821115620002465760008484830101525b98506200025891505088820162000150565b955050506200026a6040870162000150565b92506200027a6060870162000150565b9150608086015190509295509295909350565b600181811c90821680620002a257607f821691505b60208210811415620002c457634e487b7160e01b600052602260045260246000fd5b50919050565b60805160a05160c05160e051611f9e6200032e600039600081816102230152610f4701526000818161040501526107f40152600081816102ef015261106a0152600081816101ba015281816104710152818161060a01526110fa0152611f9e6000f3fe608060405234801561001057600080fd5b506004361061016c5760003560e01c806379ba5097116100cd578063a3499c7311610081578063e30c397811610066578063e30c3978146103c6578063f2fde38b146103ed578063fc0c546a1461040057600080fd5b8063a3499c7314610381578063e11719991461039457600080fd5b80638da5cb5b116100b25780638da5cb5b1461033f5780639dd0cc16146103665780639ded06df1461036e57600080fd5b806379ba5097146103115780638291286c1461031957600080fd5b80634916065811610124578063567813881161010957806356781388146102b05780635c60da1b146102c35780636a22d8cc146102ea57600080fd5b80634916065814610253578063544ffc9c1461026657600080fd5b80631a98b2e0116101555780631a98b2e0146101f45780631c93b03a1461020957806332d0c46d1461021e57600080fd5b8063013cf08b14610171578063116191b6146101b5575b600080fd5b61019b61017f366004611712565b6002602052600090815260409020805460019091015460ff1682565b604080519283529015156020830152015b60405180910390f35b6101dc7f000000000000000000000000000000000000000000000000000000000000000081565b6040516001600160a01b0390911681526020016101ac565b610207610202366004611774565b610427565b005b610211610532565b6040516101ac91906118a6565b6102457f000000000000000000000000000000000000000000000000000000000000000081565b6040519081526020016101ac565b6102076102613660046118c0565b6105c0565b610295610274366004611712565b60036020526000908152604090208054600182015460029092015490919083565b604080519384526020840192909252908201526060016101ac565b6102456102be366004611964565b6106d0565b7f360894a13ba1a3210667c828492db98dca3e2076cc3735a920a3ca505d382bbc546101dc565b6101dc7f000000000000000000000000000000000000000000000000000000000000000081565b61020761088c565b7f6fd43e7cffc31bb581d7421c8698e29aa2bd8e7186a394b85299908b4eb9b175610245565b7f02016836a56b71f0d02689e69e326f4f4c1b9057164ef592671cf0d37c8040c0546101dc565b610211610976565b61020761037c36600461199a565b610983565b61020761038f3660046119f8565b6109fc565b6103b66103a2366004611712565b600090815260026020526040902054151590565b60405190151581526020016101ac565b7f9855384122b55936fbfb8ca5120e63c6537a1ac40caf6ae33502b3c5da8c87d1546101dc565b6102076103fb366004611a52565b610d18565b6101dc7f000000000000000000000000000000000000000000000000000000000000000081565b60008585604051610439929190611a6d565b6040519081900381207f1876eed900000000000000000000000000000000000000000000000000000000825291506001600160a01b037f00000000000000000000000000000000000000000000000000000000000000001690631876eed9906104b6908e908e908e908e908e9089908d908d908d90600401611aa6565b602060405180830381600087803b1580156104d057600080fd5b505af11580156104e4573d6000803e3d6000fd5b505050506040513d601f19601f820116820180604052508101906105089190611b05565b61052557604051631403112d60e21b815260040160405180910390fd5b5050505050505050505050565b6000805461053f90611b27565b80601f016020809104026020016040519081016040528092919081815260200182805461056b90611b27565b80156105b85780601f1061058d576101008083540402835291602001916105b8565b820191906000526020600020905b81548152906001019060200180831161059b57829003601f168201915b505050505081565b600082826040516105d2929190611a6d565b6040519081900381207f5f6970c300000000000000000000000000000000000000000000000000000000825291506001600160a01b037f00000000000000000000000000000000000000000000000000000000000000001690635f6970c390610649908b908b908b908b908b908990600401611b62565b602060405180830381600087803b15801561066357600080fd5b505af1158015610677573d6000803e3d6000fd5b505050506040513d601f19601f8201168201806040525081019061069b9190611b05565b6106b857604051631403112d60e21b815260040160405180910390fd5b6106c6878787878787610dc0565b5050505050505050565b6000828152600260205260408120600181015460ff161561075e5760405162461bcd60e51b815260206004820152602760248201527f44414f536174656c6c6974653a20766f7465206e6f742063757272656e746c7960448201527f206163746976650000000000000000000000000000000000000000000000000060648201526084015b60405180910390fd5b6000848152600260205260409020546107b95760405162461bcd60e51b815260206004820152601760248201527f44414f3a206e6f742061207374617274656420766f74650000000000000000006044820152606401610755565b80546040517f3a46b1a800000000000000000000000000000000000000000000000000000000815233600482015260248101919091526000907f00000000000000000000000000000000000000000000000000000000000000006001600160a01b031690633a46b1a89060440160206040518083038186803b15801561083e57600080fd5b505afa158015610852573d6000803e3d6000fd5b505050506040513d601f19601f820116820180604052508101906108769190611ba3565b9050610884853386846111b5565b949350505050565b60006108b67f9855384122b55936fbfb8ca5120e63c6537a1ac40caf6ae33502b3c5da8c87d15490565b90506001600160a01b03811633146108fa576040517f49e27cff00000000000000000000000000000000000000000000000000000000815260040160405180910390fd5b6040516001600160a01b038216907f04dba622d284ed0014ee4b9a6a68386be1a4c08a4913ae272de89199cc68616390600090a260007f9855384122b55936fbfb8ca5120e63c6537a1ac40caf6ae33502b3c5da8c87d1557f02016836a56b71f0d02689e69e326f4f4c1b9057164ef592671cf0d37c8040c055565b6001805461053f90611b27565b60006109ad7f360894a13ba1a3210667c828492db98dca3e2076cc3735a920a3ca505d382bbc5490565b6001600160a01b031614156109ee576040517fbf10dd3a00000000000000000000000000000000000000000000000000000000815260040160405180910390fd5b6109f88282611332565b5050565b33610a257f02016836a56b71f0d02689e69e326f4f4c1b9057164ef592671cf0d37c8040c05490565b6001600160a01b031614610a4c576040516330cd747160e01b815260040160405180910390fd5b306001600160a01b0316638291286c6040518163ffffffff1660e01b815260040160206040518083038186803b158015610a8557600080fd5b505afa158015610a99573d6000803e3d6000fd5b505050506040513d601f19601f82011682018060405250810190610abd9190611ba3565b846001600160a01b0316638291286c6040518163ffffffff1660e01b815260040160206040518083038186803b158015610af657600080fd5b505afa158015610b0a573d6000803e3d6000fd5b505050506040513d601f19601f82011682018060405250810190610b2e9190611ba3565b14610b65576040517f68155f9a00000000000000000000000000000000000000000000000000000000815260040160405180910390fd5b836001600160a01b03163f8314610ba8576040517f8f84fb2400000000000000000000000000000000000000000000000000000000815260040160405180910390fd5b8015610cbd576000846001600160a01b0316639ded06df60e01b8484604051602401610bd5929190611bbc565b60408051601f198184030181529181526020820180517bffffffffffffffffffffffffffffffffffffffffffffffffffffffff167fffffffff00000000000000000000000000000000000000000000000000000000909416939093179092529051610c409190611bd0565b600060405180830381855af49150503d8060008114610c7b576040519150601f19603f3d011682016040523d82523d6000602084013e610c80565b606091505b5050905080610cbb576040517f97905dfb00000000000000000000000000000000000000000000000000000000815260040160405180910390fd5b505b6040516001600160a01b038516907fbc7cd75a20ee27fd9adebab32041f755214dbc6bffa90cc0225b39da2e5c2d3b90600090a25050507f360894a13ba1a3210667c828492db98dca3e2076cc3735a920a3ca505d382bbc55565b33610d417f02016836a56b71f0d02689e69e326f4f4c1b9057164ef592671cf0d37c8040c05490565b6001600160a01b031614610d68576040516330cd747160e01b815260040160405180910390fd5b6040516001600160a01b038216907fd9be0e8e07417e00f2521db636cb53e316fd288f5051f16d2aa2bf0c3938a87690600090a27f9855384122b55936fbfb8ca5120e63c6537a1ac40caf6ae33502b3c5da8c87d155565b6001604051602001610dd29190611bec565b604051602081830303815290604052805190602001208585604051602001610dfb929190611a6d565b6040516020818303038152906040528051906020012014610e845760405162461bcd60e51b815260206004820152603160248201527f4f6e6c79206d657373616765732066726f6d207468652068756220636861696e60448201527f2063616e206265207265636569766564210000000000000000000000000000006064820152608401610755565b602081015161ffff8116610fe15760008083806020019051810190610ea99190611c70565b9250925050610ec682600090815260026020526040902054151590565b15610f395760405162461bcd60e51b815260206004820152602f60248201527f50726f706f73616c204944206d75737420626520756e697175652c20616e642060448201527f6e6f7420616c72656164792073657400000000000000000000000000000000006064820152608401610755565b600042821015610f9f5760007f0000000000000000000000000000000000000000000000000000000000000000610f708442611cbb565b610f7a9190611cd2565b905043811015610f9557610f8e8143611cbb565b9150610f99565b4391505b50610fa2565b50435b6040805180820182529182526000602080840182815295825260029052209051815591516001909201805460ff191692151592909217909155506111ad565b8061ffff16600114156111ad576000828060200190518101906110049190611cf4565b600081815260036020908152604080832060018101548154600283015484519586018790529385018790526060850191909152608084015260a08301919091529294509192509060c00160408051601f1981840301815291905290506001600160a01b037f000000000000000000000000000000000000000000000000000000000000000016630c93e3bb67016345785d8a00003060016110a4826113a1565b86336040518763ffffffff1660e01b81526004016110c6959493929190611d97565b6000604051808303818588803b1580156110df57600080fd5b505af11580156110f3573d6000803e3d6000fd5b50505050507f00000000000000000000000000000000000000000000000000000000000000006001600160a01b0316631c92115f600161113b306001600160a01b03166113a1565b846040518463ffffffff1660e01b815260040161115a93929190611df6565b600060405180830381600087803b15801561117457600080fd5b505af1158015611188573d6000803e3d6000fd5b50505060009384525050600260205250604090206001908101805460ff191690911790555b505050505050565b60008481526003602081815260408084206001600160a01b03881685529283019091529091205460ff161561122c5760405162461bcd60e51b815260206004820152601660248201527f44414f3a20766f746520616c72656164792063617374000000000000000000006044820152606401610755565b6001600160a01b03841660009081526003820160205260408120805460ff1916600117905560ff168360ff16141561127d57818160000160008282546112729190611e39565b9091555061132b9050565b60ff83166001141561129d57818160010160008282546112729190611e39565b60ff8316600214156112bd57818160020160008282546112729190611e39565b60405162461bcd60e51b815260206004820152602960248201527f44414f536174656c6c6974653a20696e76616c69642076616c756520666f722060448201527f656e756d207479706500000000000000000000000000000000000000000000006064820152608401610755565b5050505050565b600061134082840184611e67565b90506000805461134f90611b27565b159050611388576040517f0dc149f000000000000000000000000000000000000000000000000000000000815260040160405180910390fd5b805161139b906000906020840190611679565b50505050565b604051606082811b6bffffffffffffffffffffffff191660208301529060009060340160408051601f198184030181528282528051838301909252601083527f30313233343536373839616263646566000000000000000000000000000000006020840152805190935090919060009061141c906002611f18565b611427906002611e39565b67ffffffffffffffff81111561143f5761143f611e51565b6040519080825280601f01601f191660200182016040528015611469576020820181803683370190505b5090507f3000000000000000000000000000000000000000000000000000000000000000816000815181106114a0576114a0611f37565b60200101906001600160f81b031916908160001a9053507f7800000000000000000000000000000000000000000000000000000000000000816001815181106114eb576114eb611f37565b60200101906001600160f81b031916908160001a90535060005b8381101561166f5782600486838151811061152257611522611f37565b016020015182517fff0000000000000000000000000000000000000000000000000000000000000090911690911c60f81c90811061156257611562611f37565b01602001517fff000000000000000000000000000000000000000000000000000000000000001682611595836002611f18565b6115a0906002611e39565b815181106115b0576115b0611f37565b60200101906001600160f81b031916908160001a905350828582815181106115da576115da611f37565b602091010151815160f89190911c600f169081106115fa576115fa611f37565b01602001517fff00000000000000000000000000000000000000000000000000000000000000168261162d836002611f18565b611638906003611e39565b8151811061164857611648611f37565b60200101906001600160f81b031916908160001a90535061166881611f4d565b9050611505565b5095945050505050565b82805461168590611b27565b90600052602060002090601f0160209004810192826116a757600085556116ed565b82601f106116c057805160ff19168380011785556116ed565b828001600101855582156116ed579182015b828111156116ed5782518255916020019190600101906116d2565b506116f99291506116fd565b5090565b5b808211156116f957600081556001016116fe565b60006020828403121561172457600080fd5b5035919050565b60008083601f84011261173d57600080fd5b50813567ffffffffffffffff81111561175557600080fd5b60208301915083602082850101111561176d57600080fd5b9250929050565b60008060008060008060008060008060c08b8d03121561179357600080fd5b8a35995060208b013567ffffffffffffffff808211156117b257600080fd5b6117be8e838f0161172b565b909b50995060408d01359150808211156117d757600080fd5b6117e38e838f0161172b565b909950975060608d01359150808211156117fc57600080fd5b6118088e838f0161172b565b909750955060808d013591508082111561182157600080fd5b5061182e8d828e0161172b565b9150809450508092505060a08b013590509295989b9194979a5092959850565b60005b83811015611869578181015183820152602001611851565b8381111561139b5750506000910152565b6000815180845261189281602086016020860161184e565b601f01601f19169290920160200192915050565b6020815260006118b9602083018461187a565b9392505050565b60008060008060008060006080888a0312156118db57600080fd5b87359650602088013567ffffffffffffffff808211156118fa57600080fd5b6119068b838c0161172b565b909850965060408a013591508082111561191f57600080fd5b61192b8b838c0161172b565b909650945060608a013591508082111561194457600080fd5b506119518a828b0161172b565b989b979a50959850939692959293505050565b6000806040838503121561197757600080fd5b82359150602083013560ff8116811461198f57600080fd5b809150509250929050565b600080602083850312156119ad57600080fd5b823567ffffffffffffffff8111156119c457600080fd5b6119d08582860161172b565b90969095509350505050565b80356001600160a01b03811681146119f357600080fd5b919050565b60008060008060608587031215611a0e57600080fd5b611a17856119dc565b935060208501359250604085013567ffffffffffffffff811115611a3a57600080fd5b611a468782880161172b565b95989497509550505050565b600060208284031215611a6457600080fd5b6118b9826119dc565b8183823760009101908152919050565b81835281816020850137506000828201602090810191909152601f909101601f19169091010190565b89815260c060208201526000611ac060c083018a8c611a7d565b8281036040840152611ad381898b611a7d565b90508660608401528281036080840152611aee818688611a7d565b9150508260a08301529a9950505050505050505050565b600060208284031215611b1757600080fd5b815180151581146118b957600080fd5b600181811c90821680611b3b57607f821691505b60208210811415611b5c57634e487b7160e01b600052602260045260246000fd5b50919050565b868152608060208201526000611b7c608083018789611a7d565b8281036040840152611b8f818688611a7d565b915050826060830152979650505050505050565b600060208284031215611bb557600080fd5b5051919050565b602081526000610884602083018486611a7d565b60008251611be281846020870161184e565b9190910192915050565b6000808354611bfa81611b27565b60018281168015611c125760018114611c2357611c52565b60ff19841687528287019450611c52565b8760005260208060002060005b85811015611c495781548a820152908401908201611c30565b50505082870194505b50929695505050505050565b805161ffff811681146119f357600080fd5b600080600060608486031215611c8557600080fd5b611c8e84611c5e565b925060208401519150604084015190509250925092565b634e487b7160e01b600052601160045260246000fd5b600082821015611ccd57611ccd611ca5565b500390565b600082611cef57634e487b7160e01b600052601260045260246000fd5b500490565b60008060408385031215611d0757600080fd5b611d1083611c5e565b9150602083015190509250929050565b60008154611d2d81611b27565b808552602060018381168015611d4a5760018114611d5e57611d8c565b60ff19851688840152604088019550611d8c565b866000528260002060005b85811015611d845781548a8201860152908301908401611d69565b890184019650505b505050505092915050565b60006001600160a01b03808816835260a06020840152611dba60a0840188611d20565b8381036040850152611dcc818861187a565b90508381036060850152611de0818761187a565b9250508084166080840152509695505050505050565b606081526000611e096060830186611d20565b8281036020840152611e1b818661187a565b90508281036040840152611e2f818561187a565b9695505050505050565b60008219821115611e4c57611e4c611ca5565b500190565b634e487b7160e01b600052604160045260246000fd5b600060208284031215611e7957600080fd5b813567ffffffffffffffff80821115611e9157600080fd5b818401915084601f830112611ea557600080fd5b813581811115611eb757611eb7611e51565b604051601f8201601f19908116603f01168101908382118183101715611edf57611edf611e51565b81604052828152876020848701011115611ef857600080fd5b826020860160208301376000928101602001929092525095945050505050565b6000816000190483118215151615611f3257611f32611ca5565b500290565b634e487b7160e01b600052603260045260246000fd5b6000600019821415611f6157611f61611ca5565b506001019056fea26469706673582212203c60289fb89a5076f9a0be877a24e58b0091db81a4664956e3c09f24d799fa8764736f6c63430008090033",
  "linkReferences": {},
  "deployedLinkReferences": {}
}