{
  "_format": "hh-sol-artifact-1",
  "contractName": "SimpleIncrementer",
  "sourceName": "contracts/SimpleIncrementer.sol",
  "abi": [
    {
      "inputs": [],
      "name": "increment",
      "outputs": [],
      "stateMutability": "nonpayable",
      "type": "function"
    },
    {
      "inputs": [],
      "name": "incrementer",
      "outputs": [
        {
          "internalType": "uint256",
          "name": "",
          "type": "uint256"
        }
      ],
      "stateMutability": "view",
      "type": "function"
    }
  ],
  "bytecode": "0x608060405234801561001057600080fd5b5060e48061001f6000396000f3fe6080604052348015600f57600080fd5b506004361060325760003560e01c80631da5772d146037578063d09de08a146051575b600080fd5b603f60005481565b60405190815260200160405180910390f35b60576059565b005b6001600080828254606991906070565b9091555050565b6000821982111560a9577f4e487b7100000000000000000000000000000000000000000000000000000000600052601160045260246000fd5b50019056fea264697066735822122006a98a4c1a9b7bdf798f1f870796dcd91fef5c6a41c904ea179199eca02b496264736f6c63430008090033",
  "linkReferences": {},
  "deployedLinkReferences": {}
}